{
  "transactions": [
    {
      "hash": "0x3d4ba26e1967dc3a1024a94fa3438125a10aec657342cedd83469f549baa59d8",
      "transactionType": "CALL",
      "contractName": null,
      "contractAddress": "0x779877a7b0d9e8603169ddbd7836e478b4624789",
      "function": "transferAndCall(address,uint256,bytes)",
      "arguments": [
        "0x9DdfaCa8183c41ad55329BdeeD9F6A8d53168B1B",
        "3000000000000000000",
        "0x1d9872776e7a0ca192e75eb18af86f6d02a3dd2b94f5c817bab9358d481e6b09"
      ],
      "transaction": {
        "from": "0x9a5a1f42f6a790a0423c19b7fc1dd5f4fef4a529",
        "to": "0x779877a7b0d9e8603169ddbd7836e478b4624789",
        "gas": "0x14cbb",
        "value": "0x0",
        "input": "0x4000aea00000000000000000000000009ddfaca8183c41ad55329bdeed9f6a8d53168b1b00000000000000000000000000000000000000000000000029a2241af62c0000000000000000000000000000000000000000000000000000000000000000006000000000000000000000000000000000000000000000000000000000000000201d9872776e7a0ca192e75eb18af86f6d02a3dd2b94f5c817bab9358d481e6b09",
        "nonce": "0x4",
        "chainId": "0xaa36a7"
      },
      "additionalContracts": [],
      "isFixedGasLimit": false
    }
  ],
  "receipts": [
    {
      "status": "0x1",
      "cumulativeGasUsed": "0x1342f3d",
      "logs": [
        {
          "address": "0x779877a7b0d9e8603169ddbd7836e478b4624789",
          "topics": [
            "0xddf252ad1be2c89b69c2b068fc378daa952ba7f163c4a11628f55a4df523b3ef",
            "0x0000000000000000000000009a5a1f42f6a790a0423c19b7fc1dd5f4fef4a529",
            "0x0000000000000000000000009ddfaca8183c41ad55329bdeed9f6a8d53168b1b"
          ],
          "data": "0x00000000000000000000000000000000000000000000000029a2241af62c0000",
          "blockHash": "0x1687b43be47d9847e4a4a7571052a5a00db28bd74a8c9f8ed5318dfe23e689ae",
          "blockNumber": "0x9506eb",
          "blockTimestamp": "0x69315f90",
          "transactionHash": "0x3d4ba26e1967dc3a1024a94fa3438125a10aec657342cedd83469f549baa59d8",
          "transactionIndex": "0x58",
          "logIndex": "0x209",
          "removed": false
        },
        {
          "address": "0x779877a7b0d9e8603169ddbd7836e478b4624789",
          "topics": [
            "0xe19260aff97b920c7df27010903aeb9c8d2be5d310a2c67824cf3f15396e4c16",
            "0x0000000000000000000000009a5a1f42f6a790a0423c19b7fc1dd5f4fef4a529",
            "0x0000000000000000000000009ddfaca8183c41ad55329bdeed9f6a8d53168b1b"
          ],
          "data": "0x00000000000000000000000000000000000000000000000029a2241af62c0000000000000000000000000000000000000000000000000000000000000000004000000000000000000000000000000000000000000000000000000000000000201d9872776e7a0ca192e75eb18af86f6d02a3dd2b94f5c817bab9358d481e6b09",
          "blockHash": "0x1687b43be47d9847e4a4a7571052a5a00db28bd74a8c9f8ed5318dfe23e689ae",
          "blockNumber": "0x9506eb",
          "blockTimestamp": "0x69315f90",
          "transactionHash": "0x3d4ba26e1967dc3a1024a94fa3438125a10aec657342cedd83469f549baa59d8",
          "transactionIndex": "0x58",
          "logIndex": "0x20a",
          "removed": false
        },
        {
          "address": "0x9ddfaca8183c41ad55329bdeed9f6a8d53168b1b",
          "topics": [
            "0x1ced9348ff549fceab2ac57cd3a9de38edaaab274b725ee82c23e8fc8c4eec7a",
            "0x1d9872776e7a0ca192e75eb18af86f6d02a3dd2b94f5c817bab9358d481e6b09"
          ],
          "data": "0x0000000000000000000000000000000000000000000000008ac7230489e80000000000000000000000000000000000000000000000000000b469471f80140000",
          "blockHash": "0x1687b43be47d9847e4a4a7571052a5a00db28bd74a8c9f8ed5318dfe23e689ae",
          "blockNumber": "0x9506eb",
          "blockTimestamp": "0x69315f90",
          "transactionHash": "0x3d4ba26e1967dc3a1024a94fa3438125a10aec657342cedd83469f549baa59d8",
          "transactionIndex": "0x58",
          "logIndex": "0x20b",
          "removed": false
        }
      ],
      "logsBloom": "0x00000004000000020000000000000000000000004020000000000000020000000000000000000000000000000000000000000000000000000000000000000000000000000000000000000008000000000000000000000000000020000020000008000000000000001000000000020000000000000000000000000010000040000000000000000020000000010000800000000020000000000000000000000000000000000000000000000000010000000000000000000000000004000000000000000002000004000000000000000000000000000000000100000000000000000010000000000000800000000000000000000000000000000000000000000000",
      "type": "0x2",
      "transactionHash": "0x3d4ba26e1967dc3a1024a94fa3438125a10aec657342cedd83469f549baa59d8",
      "transactionIndex": "0x58",
      "blockHash": "0x1687b43be47d9847e4a4a7571052a5a00db28bd74a8c9f8ed5318dfe23e689ae",
      "blockNumber": "0x9506eb",
      "gasUsed": "0xf0e5",
      "effectiveGasPrice": "0xf7eb7",
      "from": "0x9a5a1f42f6a790a0423c19b7fc1dd5f4fef4a529",
      "to": "0x779877a7b0d9e8603169ddbd7836e478b4624789",
      "contractAddress": null
    }
  ],
  "libraries": [],
  "pending": [],
  "returns": {},
  "timestamp": 1764843410597,
  "chain": 11155111,
  "commit": "acb15d4"
}